{
  "contractName": "Registry",
  "abi": [
    {
      "inputs": [],
      "payable": false,
      "stateMutability": "nonpayable",
      "type": "constructor"
    },
    {
      "anonymous": false,
      "inputs": [
        {
          "indexed": false,
          "internalType": "uint256",
          "name": "_pin",
          "type": "uint256"
        }
      ],
      "name": "LogDeleteProperty",
      "type": "event"
    },
    {
      "anonymous": false,
      "inputs": [
        {
          "indexed": false,
          "internalType": "uint256",
          "name": "_pin",
          "type": "uint256"
        },
        {
          "indexed": false,
          "internalType": "address",
          "name": "_owner",
          "type": "address"
        }
      ],
      "name": "LogNewProperty",
      "type": "event"
    },
    {
      "anonymous": false,
      "inputs": [
        {
          "indexed": false,
          "internalType": "address",
          "name": "_oldOwner",
          "type": "address"
        },
        {
          "indexed": false,
          "internalType": "address",
          "name": "_newOwner",
          "type": "address"
        }
      ],
      "name": "LogUpdateProperty",
      "type": "event"
    },
    {
      "anonymous": false,
      "inputs": [
        {
          "indexed": true,
          "internalType": "address",
          "name": "previousOwner",
          "type": "address"
        },
        {
          "indexed": true,
          "internalType": "address",
          "name": "newOwner",
          "type": "address"
        }
      ],
      "name": "OwnershipTransferred",
      "type": "event"
    },
    {
      "constant": true,
      "inputs": [],
      "name": "isOwner",
      "outputs": [
        {
          "internalType": "bool",
          "name": "",
          "type": "bool"
        }
      ],
      "payable": false,
      "stateMutability": "view",
      "type": "function"
    },
    {
      "constant": true,
      "inputs": [],
      "name": "owner",
      "outputs": [
        {
          "internalType": "address",
          "name": "",
          "type": "address"
        }
      ],
      "payable": false,
      "stateMutability": "view",
      "type": "function"
    },
    {
      "constant": true,
      "inputs": [
        {
          "internalType": "uint256",
          "name": "",
          "type": "uint256"
        }
      ],
      "name": "properties",
      "outputs": [
        {
          "internalType": "address",
          "name": "owner",
          "type": "address"
        },
        {
          "internalType": "uint256",
          "name": "listPointer",
          "type": "uint256"
        }
      ],
      "payable": false,
      "stateMutability": "view",
      "type": "function"
    },
    {
      "constant": true,
      "inputs": [
        {
          "internalType": "uint256",
          "name": "",
          "type": "uint256"
        }
      ],
      "name": "propertyList",
      "outputs": [
        {
          "internalType": "uint256",
          "name": "",
          "type": "uint256"
        }
      ],
      "payable": false,
      "stateMutability": "view",
      "type": "function"
    },
    {
      "constant": false,
      "inputs": [],
      "name": "renounceOwnership",
      "outputs": [],
      "payable": false,
      "stateMutability": "nonpayable",
      "type": "function"
    },
    {
      "constant": false,
      "inputs": [
        {
          "internalType": "address",
          "name": "newOwner",
          "type": "address"
        }
      ],
      "name": "transferOwnership",
      "outputs": [],
      "payable": false,
      "stateMutability": "nonpayable",
      "type": "function"
    },
    {
      "constant": true,
      "inputs": [],
      "name": "listProperties",
      "outputs": [
        {
          "internalType": "uint256[]",
          "name": "",
          "type": "uint256[]"
        }
      ],
      "payable": false,
      "stateMutability": "view",
      "type": "function"
    },
    {
      "constant": true,
      "inputs": [
        {
          "internalType": "uint256",
          "name": "pin",
          "type": "uint256"
        }
      ],
      "name": "isProperty",
      "outputs": [
        {
          "internalType": "address",
          "name": "",
          "type": "address"
        }
      ],
      "payable": false,
      "stateMutability": "view",
      "type": "function"
    },
    {
      "constant": true,
      "inputs": [],
      "name": "getPropertyCount",
      "outputs": [
        {
          "internalType": "uint256",
          "name": "propertyCount",
          "type": "uint256"
        }
      ],
      "payable": false,
      "stateMutability": "view",
      "type": "function"
    },
    {
      "constant": false,
      "inputs": [
        {
          "internalType": "address",
          "name": "ownerAddress",
          "type": "address"
        },
        {
          "internalType": "uint256",
          "name": "pin",
          "type": "uint256"
        }
      ],
      "name": "newProperty",
      "outputs": [
        {
          "internalType": "bool",
          "name": "success",
          "type": "bool"
        }
      ],
      "payable": false,
      "stateMutability": "nonpayable",
      "type": "function"
    },
    {
      "constant": false,
      "inputs": [
        {
          "internalType": "address",
          "name": "ownerAddress",
          "type": "address"
        },
        {
          "internalType": "uint256",
          "name": "pin",
          "type": "uint256"
        }
      ],
      "name": "updateProperty",
      "outputs": [
        {
          "internalType": "bool",
          "name": "success",
          "type": "bool"
        }
      ],
      "payable": false,
      "stateMutability": "nonpayable",
      "type": "function"
    },
    {
      "constant": false,
      "inputs": [
        {
          "internalType": "address",
          "name": "ownerAddress",
          "type": "address"
        },
        {
          "internalType": "uint256",
          "name": "pin",
          "type": "uint256"
        }
      ],
      "name": "updatePropertyFromMortgage",
      "outputs": [
        {
          "internalType": "bool",
          "name": "success",
          "type": "bool"
        }
      ],
      "payable": false,
      "stateMutability": "nonpayable",
      "type": "function"
    },
    {
      "constant": false,
      "inputs": [
        {
          "internalType": "uint256",
          "name": "pin",
          "type": "uint256"
        }
      ],
      "name": "deleteProperty",
      "outputs": [
        {
          "internalType": "bool",
          "name": "success",
          "type": "bool"
        }
      ],
      "payable": false,
      "stateMutability": "nonpayable",
      "type": "function"
    }
  ],
  "bytecode": "0x608060405234801561001057600080fd5b5061001f61019360201b60201c565b6000806101000a81548173ffffffffffffffffffffffffffffffffffffffff021916908373ffffffffffffffffffffffffffffffffffffffff1602179055506000809054906101000a900473ffffffffffffffffffffffffffffffffffffffff1673ffffffffffffffffffffffffffffffffffffffff16600073ffffffffffffffffffffffffffffffffffffffff167f8be0079c531659141344cd1fd0a4f28419497f9722a3daafe3b4186f6b6457e060405160405180910390a373df7064894a0da6b741b86104af7875647b7767a3600160006001815260200190815260200160002060000160006101000a81548173ffffffffffffffffffffffffffffffffffffffff021916908373ffffffffffffffffffffffffffffffffffffffff160217905550600160026001908060018154018082558091505090600182039060005260206000200160009091929091909150550360016000600181526020019081526020016000206001018190555061019b565b600033905090565b6112eb806101aa6000396000f3fe608060405234801561001057600080fd5b50600436106100cf5760003560e01c806351d2a3b21161008c5780638da5cb5b116100665780638da5cb5b146103835780638f32d59b146103cd578063f2fde38b146103ef578063f7b1080814610433576100cf565b806351d2a3b214610319578063715018a61461035b5780637326b90114610365576100cf565b8063162186b5146100d4578063170140f1146101425780632307636f146101885780632625fe2a146101ee5780633d319c241461024d5780634673917c146102b3575b600080fd5b610100600480360360208110156100ea57600080fd5b81019080803590602001909291905050506104a8565b604051808273ffffffffffffffffffffffffffffffffffffffff1673ffffffffffffffffffffffffffffffffffffffff16815260200191505060405180910390f35b61016e6004803603602081101561015857600080fd5b81019080803590602001909291905050506105a1565b604051808215151515815260200191505060405180910390f35b6101d46004803603604081101561019e57600080fd5b81019080803573ffffffffffffffffffffffffffffffffffffffff169060200190929190803590602001909291905050506107c4565b604051808215151515815260200191505060405180910390f35b6101f6610985565b6040518080602001828103825283818151815260200191508051906020019060200280838360005b8381101561023957808201518184015260208101905061021e565b505050509050019250505060405180910390f35b6102996004803603604081101561026357600080fd5b81019080803573ffffffffffffffffffffffffffffffffffffffff169060200190929190803590602001909291905050506109dd565b604051808215151515815260200191505060405180910390f35b6102ff600480360360408110156102c957600080fd5b81019080803573ffffffffffffffffffffffffffffffffffffffff16906020019092919080359060200190929190505050610bc8565b604051808215151515815260200191505060405180910390f35b6103456004803603602081101561032f57600080fd5b8101908080359060200190929190505050610e04565b6040518082815260200191505060405180910390f35b610363610e25565b005b61036d610f5e565b6040518082815260200191505060405180910390f35b61038b610f6b565b604051808273ffffffffffffffffffffffffffffffffffffffff1673ffffffffffffffffffffffffffffffffffffffff16815260200191505060405180910390f35b6103d5610f94565b604051808215151515815260200191505060405180910390f35b6104316004803603602081101561040557600080fd5b81019080803573ffffffffffffffffffffffffffffffffffffffff169060200190929190505050610ff2565b005b61045f6004803603602081101561044957600080fd5b8101908080359060200190929190505050611078565b604051808373ffffffffffffffffffffffffffffffffffffffff1673ffffffffffffffffffffffffffffffffffffffff1681526020018281526020019250505060405180910390f35b60008060028054905011610524576040517f08c379a00000000000000000000000000000000000000000000000000000000081526004018080602001828103825260188152602001807f5468657265206973206e6f2070726f706572747920796574000000000000000081525060200191505060405180910390fd5b81600260016000858152602001908152602001600020600101548154811061054857fe5b90600052602060002001541415610597576001600083815260200190815260200160002060000160009054906101000a900473ffffffffffffffffffffffffffffffffffffffff16905061059c565b600090505b919050565b60006105ab610f94565b61061d576040517f08c379a00000000000000000000000000000000000000000000000000000000081526004018080602001828103825260208152602001807f4f776e61626c653a2063616c6c6572206973206e6f7420746865206f776e657281525060200191505060405180910390fd5b600073ffffffffffffffffffffffffffffffffffffffff166001600084815260200190815260200160002060000160009054906101000a900473ffffffffffffffffffffffffffffffffffffffff1673ffffffffffffffffffffffffffffffffffffffff1614156106f6576040517f08c379a00000000000000000000000000000000000000000000000000000000081526004018080602001828103825260168152602001807f546869732050494e20646f656e7327742065786973740000000000000000000081525060200191505060405180910390fd5b600060016000848152602001908152602001600020600101549050600060026001600280549050038154811061072857fe5b90600052602060002001549050806002838154811061074357fe5b906000526020600020018190555081600160008381526020019081526020016000206001018190555060028054809190600190036107819190611208565b507f2f1aa08a60d93cf2b9023aa8fcef9835914570d698964b630072fb8d03f0db59846040518082815260200191505060405180910390a1600192505050919050565b60008073ffffffffffffffffffffffffffffffffffffffff166107e6836104a8565b73ffffffffffffffffffffffffffffffffffffffff161415610853576040517f08c379a00000000000000000000000000000000000000000000000000000000081526004018080602001828103825260378152602001806112806037913960400191505060405180910390fd5b60006001600084815260200190815260200160002060000160009054906101000a900473ffffffffffffffffffffffffffffffffffffffff169050836001600085815260200190815260200160002060000160006101000a81548173ffffffffffffffffffffffffffffffffffffffff021916908373ffffffffffffffffffffffffffffffffffffffff1602179055507f02d288123278327b01540a2c41082e60dfc42e9062438956eb4ede8ceaf8e6888185604051808373ffffffffffffffffffffffffffffffffffffffff1673ffffffffffffffffffffffffffffffffffffffff1681526020018273ffffffffffffffffffffffffffffffffffffffff1673ffffffffffffffffffffffffffffffffffffffff1681526020019250505060405180910390a1600191505092915050565b606060028054806020026020016040519081016040528092919081815260200182805480156109d357602002820191906000526020600020905b8154815260200190600101908083116109bf575b5050505050905090565b60008073ffffffffffffffffffffffffffffffffffffffff166001600084815260200190815260200160002060000160009054906101000a900473ffffffffffffffffffffffffffffffffffffffff1673ffffffffffffffffffffffffffffffffffffffff1614610ab6576040517f08c379a00000000000000000000000000000000000000000000000000000000081526004018080602001828103825260168152602001807f546869732050494e20616c72656164792065786973740000000000000000000081525060200191505060405180910390fd5b826001600084815260200190815260200160002060000160006101000a81548173ffffffffffffffffffffffffffffffffffffffff021916908373ffffffffffffffffffffffffffffffffffffffff1602179055506001600283908060018154018082558091505090600182039060005260206000200160009091929091909150550360016000848152602001908152602001600020600101819055507f05abf169440111d0876247524cb517061e72d226915126dc4affb0cdf2356c0e8284604051808381526020018273ffffffffffffffffffffffffffffffffffffffff1673ffffffffffffffffffffffffffffffffffffffff1681526020019250505060405180910390a16001905092915050565b6000610bd2610f94565b610c44576040517f08c379a00000000000000000000000000000000000000000000000000000000081526004018080602001828103825260208152602001807f4f776e61626c653a2063616c6c6572206973206e6f7420746865206f776e657281525060200191505060405180910390fd5b600073ffffffffffffffffffffffffffffffffffffffff16610c65836104a8565b73ffffffffffffffffffffffffffffffffffffffff161415610cd2576040517f08c379a00000000000000000000000000000000000000000000000000000000081526004018080602001828103825260378152602001806112806037913960400191505060405180910390fd5b60006001600084815260200190815260200160002060000160009054906101000a900473ffffffffffffffffffffffffffffffffffffffff169050836001600085815260200190815260200160002060000160006101000a81548173ffffffffffffffffffffffffffffffffffffffff021916908373ffffffffffffffffffffffffffffffffffffffff1602179055507f02d288123278327b01540a2c41082e60dfc42e9062438956eb4ede8ceaf8e6888185604051808373ffffffffffffffffffffffffffffffffffffffff1673ffffffffffffffffffffffffffffffffffffffff1681526020018273ffffffffffffffffffffffffffffffffffffffff1673ffffffffffffffffffffffffffffffffffffffff1681526020019250505060405180910390a1600191505092915050565b60028181548110610e1157fe5b906000526020600020016000915090505481565b610e2d610f94565b610e9f576040517f08c379a00000000000000000000000000000000000000000000000000000000081526004018080602001828103825260208152602001807f4f776e61626c653a2063616c6c6572206973206e6f7420746865206f776e657281525060200191505060405180910390fd5b600073ffffffffffffffffffffffffffffffffffffffff166000809054906101000a900473ffffffffffffffffffffffffffffffffffffffff1673ffffffffffffffffffffffffffffffffffffffff167f8be0079c531659141344cd1fd0a4f28419497f9722a3daafe3b4186f6b6457e060405160405180910390a360008060006101000a81548173ffffffffffffffffffffffffffffffffffffffff021916908373ffffffffffffffffffffffffffffffffffffffff160217905550565b6000600280549050905090565b60008060009054906101000a900473ffffffffffffffffffffffffffffffffffffffff16905090565b60008060009054906101000a900473ffffffffffffffffffffffffffffffffffffffff1673ffffffffffffffffffffffffffffffffffffffff16610fd66110bc565b73ffffffffffffffffffffffffffffffffffffffff1614905090565b610ffa610f94565b61106c576040517f08c379a00000000000000000000000000000000000000000000000000000000081526004018080602001828103825260208152602001807f4f776e61626c653a2063616c6c6572206973206e6f7420746865206f776e657281525060200191505060405180910390fd5b611075816110c4565b50565b60016020528060005260406000206000915090508060000160009054906101000a900473ffffffffffffffffffffffffffffffffffffffff16908060010154905082565b600033905090565b600073ffffffffffffffffffffffffffffffffffffffff168173ffffffffffffffffffffffffffffffffffffffff16141561114a576040517f08c379a000000000000000000000000000000000000000000000000000000000815260040180806020018281038252602681526020018061125a6026913960400191505060405180910390fd5b8073ffffffffffffffffffffffffffffffffffffffff166000809054906101000a900473ffffffffffffffffffffffffffffffffffffffff1673ffffffffffffffffffffffffffffffffffffffff167f8be0079c531659141344cd1fd0a4f28419497f9722a3daafe3b4186f6b6457e060405160405180910390a3806000806101000a81548173ffffffffffffffffffffffffffffffffffffffff021916908373ffffffffffffffffffffffffffffffffffffffff16021790555050565b81548183558181111561122f5781836000526020600020918201910161122e9190611234565b5b505050565b61125691905b8082111561125257600081600090555060010161123a565b5090565b9056fe4f776e61626c653a206e6577206f776e657220697320746865207a65726f2061646472657373546869732050494e20646f656e732774206578697374206f72206e6f2070726f7065727479206f6e2074686520626c6f636b636861696ea265627a7a723158205e0b04248cf2491a9660bb084d918c33ba5659be1f226bec9e230adf1eff522364736f6c63430005100032",
  "source": "import \"@openzeppelin/contracts/ownership/Ownable.sol\";\npragma solidity ^0.5.0;\n\n/* The Registry contract keeps track of the land registry of the city. Every house should be registered in this contract */\n\ncontract Registry is Ownable {\n\n//address public owner;\n/* Data model that allows me to have a stucts with delete and index */\n  struct Property {\n    address owner;\n    uint listPointer;\n  }\n\n  //variables\n  mapping(uint => Property) public properties;\n  uint[] public propertyList;\n\n  //events\n  event LogNewProperty(uint _pin, address _owner);\n  event LogDeleteProperty(uint _pin);\n  event LogUpdateProperty(address _oldOwner,address _newOwner);\n\n\nconstructor() public{\n  properties[1].owner = 0xDf7064894A0da6b741b86104af7875647b7767A3;\n  properties[1].listPointer = propertyList.push(1)-1;\n}\n/// @dev function that allows to retrieve all the pin\n/// @return an array of ints representing the properties\n  function listProperties() public view returns(uint[] memory ){\n    return propertyList;\n  }\n\n  /// @dev check if a PIN (property identification number) exists \n  /// @param pin which is the pin\n  /// @return the owner of this pin if it exists\n  function isProperty(uint pin) public view returns(address) {\n    require(propertyList.length>0,\"There is no property yet\");\n    if(propertyList[properties[pin].listPointer] == pin) {\n         return properties[pin].owner;\n     }else{\n         return address(0);\n     } \n  }\n\n    /// @dev Check the number of property on the blockchain \n    /// @return the number of property on the blockchain\n  function getPropertyCount() public view returns(uint propertyCount) {\n    return propertyList.length;\n\n  }\n  \n  /// @dev  create a new property on the blockchain \n  /// @param ownerAddress is the owner of the property\n  /// @param pin is the corresponding pin\n  /// @return true to notify everything went well\n  function newProperty(address ownerAddress, uint pin) public returns(bool success) {\n    require(properties[pin].owner==address(0),\"This PIN already exist\");\n    properties[pin].owner = ownerAddress;\n    properties[pin].listPointer = propertyList.push(pin)-1;\n    emit LogNewProperty(pin,ownerAddress);\n    return true;\n  }\n  /// @dev allows the owner of the contract to change the owner of a property \n  /// @param ownerAddress is the new owner of the property\n  /// @param pin is the corresponding pin\n  /// @return true to notify everything went well\n  function updateProperty(address ownerAddress, uint pin) public onlyOwner() returns(bool success) {\n    require(isProperty(pin)!=address(0),\"This PIN doens't exist or no property on the blockchain\");\n    address oldOwner=properties[pin].owner;\n    properties[pin].owner = ownerAddress;\n    emit LogUpdateProperty(oldOwner,ownerAddress);\n    return true;\n  }\n\n  /// @dev allows to change the owner of a property automatically from the Mortgage contract\n  /// @param ownerAddress is the owner of the property\n  /// @param pin is the corresponding pin\n  /// @return true to notify everything went well\n  function updatePropertyFromMortgage(address ownerAddress, uint pin) public returns(bool success) {\n    require(isProperty(pin)!=address(0),\"This PIN doens't exist or no property on the blockchain\");\n    address oldOwner=properties[pin].owner;\n    properties[pin].owner = ownerAddress;\n    emit LogUpdateProperty(oldOwner,ownerAddress);\n    return true;\n  }\n\n  /// @dev allows the owner to delete a property on the blockchain \n  /// @param pin pin of the property the owner wants to delete\n  /// @return true to notify everything went well\n  function deleteProperty(uint pin) public onlyOwner() returns(bool success) {\n    require(properties[pin].owner!=address(0),\"This PIN doens't exist\");\n    uint rowToDelete = properties[pin].listPointer;\n    uint keyToMove   = propertyList[propertyList.length-1];\n    propertyList[rowToDelete] = keyToMove;\n    properties[keyToMove].listPointer = rowToDelete;\n    propertyList.length--;\n    emit LogDeleteProperty(pin);\n    return true;\n  }\n\n}\n",
  "sourcePath": "contracts/Registry.sol",
  "compiler": {
    "name": "solc",
    "version": "0.5.16+commit.9c3226ce.Emscripten.clang"
  },
  "schemaVersion": "3.0.23",
  "updatedAt": "2020-01-31T02:25:10.020Z",
  "networkType": "ethereum",
  "devdoc": {
    "methods": {
      "deleteProperty(uint256)": {
        "details": "allows the owner to delete a property on the blockchain ",
        "params": {
          "pin": "pin of the property the owner wants to delete"
        },
        "return": "true to notify everything went well"
      },
      "getPropertyCount()": {
        "details": "Check the number of property on the blockchain ",
        "return": "the number of property on the blockchain"
      },
      "isOwner()": {
        "details": "Returns true if the caller is the current owner."
      },
      "isProperty(uint256)": {
        "details": "check if a PIN (property identification number) exists ",
        "params": {
          "pin": "which is the pin"
        },
        "return": "the owner of this pin if it exists"
      },
      "listProperties()": {
        "details": "function that allows to retrieve all the pin",
        "return": "an array of ints representing the properties"
      },
      "newProperty(address,uint256)": {
        "details": "create a new property on the blockchain ",
        "params": {
          "ownerAddress": "is the owner of the property",
          "pin": "is the corresponding pin"
        },
        "return": "true to notify everything went well"
      },
      "owner()": {
        "details": "Returns the address of the current owner."
      },
      "renounceOwnership()": {
        "details": "Leaves the contract without owner. It will not be possible to call `onlyOwner` functions anymore. Can only be called by the current owner.     * NOTE: Renouncing ownership will leave the contract without an owner, thereby removing any functionality that is only available to the owner."
      },
      "transferOwnership(address)": {
        "details": "Transfers ownership of the contract to a new account (`newOwner`). Can only be called by the current owner."
      },
      "updateProperty(address,uint256)": {
        "details": "allows the owner of the contract to change the owner of a property ",
        "params": {
          "ownerAddress": "is the new owner of the property",
          "pin": "is the corresponding pin"
        },
        "return": "true to notify everything went well"
      },
      "updatePropertyFromMortgage(address,uint256)": {
        "details": "allows to change the owner of a property automatically from the Mortgage contract",
        "params": {
          "ownerAddress": "is the owner of the property",
          "pin": "is the corresponding pin"
        },
        "return": "true to notify everything went well"
      }
    }
  },
  "userdoc": {
    "methods": {}
  }
}